{
  "_format": "hh-sol-artifact-1",
  "contractName": "AuctionContract",
  "sourceName": "contracts/AuctionContract.sol",
  "abi": [
    {
      "inputs": [],
      "stateMutability": "nonpayable",
      "type": "constructor"
    },
    {
      "inputs": [],
      "name": "HighestBid",
      "outputs": [
        {
          "internalType": "uint256",
          "name": "",
          "type": "uint256"
        }
      ],
      "stateMutability": "view",
      "type": "function"
    },
    {
      "inputs": [],
      "name": "HighestBidder",
      "outputs": [
        {
          "internalType": "address",
          "name": "",
          "type": "address"
        }
      ],
      "stateMutability": "view",
      "type": "function"
    },
    {
      "inputs": [
        {
          "internalType": "address",
          "name": "_address",
          "type": "address"
        }
      ],
      "name": "TotalBid",
      "outputs": [
        {
          "internalType": "uint256",
          "name": "",
          "type": "uint256"
        }
      ],
      "stateMutability": "view",
      "type": "function"
    },
    {
      "inputs": [],
      "name": "getTimeLeft",
      "outputs": [
        {
          "internalType": "uint256",
          "name": "",
          "type": "uint256"
        }
      ],
      "stateMutability": "view",
      "type": "function"
    },
    {
      "inputs": [
        {
          "internalType": "uint256",
          "name": "amount",
          "type": "uint256"
        },
        {
          "internalType": "address",
          "name": "_address",
          "type": "address"
        }
      ],
      "name": "putBid",
      "outputs": [],
      "stateMutability": "payable",
      "type": "function"
    },
    {
      "inputs": [
        {
          "internalType": "address payable",
          "name": "_address",
          "type": "address"
        }
      ],
      "name": "withdrawBid",
      "outputs": [],
      "stateMutability": "nonpayable",
      "type": "function"
    }
  ],
  "bytecode": "0x60806040526000600560146101000a81548160ff02191690831515021790555034801561002b57600080fd5b5033600560006101000a81548173ffffffffffffffffffffffffffffffffffffffff021916908373ffffffffffffffffffffffffffffffffffffffff160217905550600080600073f39fd6e51aad88f6f4ce6ab8827279cfffb9226673ffffffffffffffffffffffffffffffffffffffff1673ffffffffffffffffffffffffffffffffffffffff1681526020019081526020016000208190555060008060007370997970c51812dc3a010c7d01b50e0d17dc79c873ffffffffffffffffffffffffffffffffffffffff1673ffffffffffffffffffffffffffffffffffffffff168152602001908152602001600020819055506000806000733c44cdddb6a900fa2b585dd299e03d12fa4293bc73ffffffffffffffffffffffffffffffffffffffff1673ffffffffffffffffffffffffffffffffffffffff1681526020019081526020016000208190555060008060007390f79bf6eb2c4f870365e785982e1f101e93b90673ffffffffffffffffffffffffffffffffffffffff1673ffffffffffffffffffffffffffffffffffffffff1681526020019081526020016000208190555060008060007315d34aaf54267db7d7c367839aaf71a00a2c6a6573ffffffffffffffffffffffffffffffffffffffff1673ffffffffffffffffffffffffffffffffffffffff168152602001908152602001600020819055506000806000739965507d1a55bcc2695c58ba16fb37d819b0a4dc73ffffffffffffffffffffffffffffffffffffffff1673ffffffffffffffffffffffffffffffffffffffff16815260200190815260200160002081905550600080600073976ea74026e726554db657fa54763abd0c3a0aa973ffffffffffffffffffffffffffffffffffffffff1673ffffffffffffffffffffffffffffffffffffffff1681526020019081526020016000208190555060008060007314dc79964da2c08b23698b3d3cc7ca32193d995573ffffffffffffffffffffffffffffffffffffffff1673ffffffffffffffffffffffffffffffffffffffff1681526020019081526020016000208190555060008060007323618e81e3f5cdf7f54c3d65f7fbc0abf5b21e8f73ffffffffffffffffffffffffffffffffffffffff1673ffffffffffffffffffffffffffffffffffffffff16815260200190815260200160002081905550600080600073a0ee7a142d267c1f36714e4a8f75612f20a7972073ffffffffffffffffffffffffffffffffffffffff1673ffffffffffffffffffffffffffffffffffffffff16815260200190815260200160002081905550600080600073bcd4042de499d14e55001ccbb24a551f3b95409673ffffffffffffffffffffffffffffffffffffffff1673ffffffffffffffffffffffffffffffffffffffff16815260200190815260200160002081905550600a426104429190610499565b60038190555060c84261045591906104cd565b600481905550610501565b6000819050919050565b7f4e487b7100000000000000000000000000000000000000000000000000000000600052601160045260246000fd5b60006104a482610460565b91506104af83610460565b92508282039050818111156104c7576104c661046a565b5b92915050565b60006104d882610460565b91506104e383610460565b92508282019050808211156104fb576104fa61046a565b5b92915050565b610901806105106000396000f3fe6080604052600436106100555760003560e01c8063167fb50e1461005a5780634ede364814610085578063996657af146100ae5780639fd4126f146100d9578063ae50db3c146100f5578063c7e284b814610132575b600080fd5b34801561006657600080fd5b5061006f61015d565b60405161007c91906104d5565b60405180910390f35b34801561009157600080fd5b506100ac60048036038101906100a79190610553565b610167565b005b3480156100ba57600080fd5b506100c36102c7565b6040516100d091906105a1565b60405180910390f35b6100f360048036038101906100ee9190610614565b6102f1565b005b34801561010157600080fd5b5061011c60048036038101906101179190610654565b61045f565b60405161012991906104d5565b60405180910390f35b34801561013e57600080fd5b506101476104a7565b60405161015491906104d5565b60405180910390f35b6000600154905090565b60008060008373ffffffffffffffffffffffffffffffffffffffff1673ffffffffffffffffffffffffffffffffffffffff1681526020019081526020016000205411156102c457600260009054906101000a900473ffffffffffffffffffffffffffffffffffffffff1673ffffffffffffffffffffffffffffffffffffffff168173ffffffffffffffffffffffffffffffffffffffff160361023e576040517f08c379a000000000000000000000000000000000000000000000000000000000815260040161023590610704565b60405180910390fd5b8073ffffffffffffffffffffffffffffffffffffffff166108fc6000808473ffffffffffffffffffffffffffffffffffffffff1673ffffffffffffffffffffffffffffffffffffffff168152602001908152602001600020549081150290604051600060405180830381858888f193505050501580156102c2573d6000803e3d6000fd5b505b50565b6000600260009054906101000a900473ffffffffffffffffffffffffffffffffffffffff16905090565b6003544211801561030457506004544211155b610343576040517f08c379a000000000000000000000000000000000000000000000000000000000815260040161033a90610770565b60405180910390fd5b60008290506000831161038b576040517f08c379a0000000000000000000000000000000000000000000000000000000008152600401610382906107dc565b60405180910390fd5b60015481116103cf576040517f08c379a00000000000000000000000000000000000000000000000000000000081526004016103c690610848565b60405180910390fd5b806000808473ffffffffffffffffffffffffffffffffffffffff1673ffffffffffffffffffffffffffffffffffffffff168152602001908152602001600020819055508060018190555033600260006101000a81548173ffffffffffffffffffffffffffffffffffffffff021916908373ffffffffffffffffffffffffffffffffffffffff160217905550505050565b60008060008373ffffffffffffffffffffffffffffffffffffffff1673ffffffffffffffffffffffffffffffffffffffff168152602001908152602001600020549050919050565b6000426004546104b79190610897565b905090565b6000819050919050565b6104cf816104bc565b82525050565b60006020820190506104ea60008301846104c6565b92915050565b600080fd5b600073ffffffffffffffffffffffffffffffffffffffff82169050919050565b6000610520826104f5565b9050919050565b61053081610515565b811461053b57600080fd5b50565b60008135905061054d81610527565b92915050565b600060208284031215610569576105686104f0565b5b60006105778482850161053e565b91505092915050565b600061058b826104f5565b9050919050565b61059b81610580565b82525050565b60006020820190506105b66000830184610592565b92915050565b6105c5816104bc565b81146105d057600080fd5b50565b6000813590506105e2816105bc565b92915050565b6105f181610580565b81146105fc57600080fd5b50565b60008135905061060e816105e8565b92915050565b6000806040838503121561062b5761062a6104f0565b5b6000610639858286016105d3565b925050602061064a858286016105ff565b9150509250929050565b60006020828403121561066a576106696104f0565b5b6000610678848285016105ff565b91505092915050565b600082825260208201905092915050565b7f5468652068696768657374206269646465722063616e6e6f742077697468647260008201527f6177000000000000000000000000000000000000000000000000000000000000602082015250565b60006106ee602283610681565b91506106f982610692565b604082019050919050565b6000602082019050818103600083015261071d816106e1565b9050919050565b7f54696d6520697320757021202041756374696f6e206973206f7665722e000000600082015250565b600061075a601d83610681565b915061076582610724565b602082019050919050565b600060208201905081810360008301526107898161074d565b9050919050565b7f42696420616d6f756e742063616e6e6f74206265207a65726f00000000000000600082015250565b60006107c6601983610681565b91506107d182610790565b602082019050919050565b600060208201905081810360008301526107f5816107b9565b9050919050565b7f486967686573742042696420616c72656164792070726573656e740000000000600082015250565b6000610832601b83610681565b915061083d826107fc565b602082019050919050565b6000602082019050818103600083015261086181610825565b9050919050565b7f4e487b7100000000000000000000000000000000000000000000000000000000600052601160045260246000fd5b60006108a2826104bc565b91506108ad836104bc565b92508282039050818111156108c5576108c4610868565b5b9291505056fea2646970667358221220dff8992b70cac23e8970e59cf260ec280b761b87c88a6908556342b18486cd2264736f6c63430008110033",
  "linkReferences": {},
  "deployedLinkReferences": {}
}